S0110000746573745F646D61302E7372656392
S11300000030002031010000C1000000C5000000E4
S1130010C1000000C1000000C1000000C1000000D8
S1130020C1000000C1000000C1000000C1000000C8
S1130030C1000000C1000000C1000000FD06000076
S113004009070000C1000000C1000000C100000059
S1130050C1000000C1000000C1000000C100000098
S1130060C1000000C1000000C1000000C100000088
S1130070C1000000C1000000C1000000C100000078
S1130080C1000000C1000000C1000000C100000068
S1130090C1000000C1000000C1000000C100000058
S11300A0C1000000C1000000C1000000C100000048
S11300B0C1000000C1000000C1000000C100000038
S11300C0FEE7C046FEE7C04680221249124B920169
S11300D0585870B502435A508121104A10484900BB
S11300E0516042690139FF398A4342610269114210
S11300F008D15526AA2502240A4A9E509D5001691A
S11301000C42FAD00449034A07488B5803408B50E9
S113011070BDC046381000000070044000D0044098
S113012000F10F4004110000FFDFFFFFC046C0468E
S1130130FFF7CAFF344B354A354993608022354B6B
S11301409200585802435A50334A3449344899501B
S11301501A6834490A401A601958334A1140334A1C
S11301600A431A50324B33499A6C0A409A64DA6C47
S11301700A400021DA64304B304A1970242353704A
S113018074331370D078793B0340D3700123137117
S11301905171103193791942FCD10C21274A93797A
S11301A00B40082BFBD1402138335371234A9379F8
S11301B01942FCD0182313700C2220498B79134068
S11301C00C2BFBD11E4A1F4B9A421AD2013B991A9F
S11301D00023890801311C4C8900E058D0500433B5
S11301E08B42FAD1D318194A934208D80321D21A60
S11301F08A43191D5218002102C39342FCD100F016
S113020007F91300EFE7C0460000000000ED00E02E
S11302103810000000700440441000000000011079
S113022004100000FFFFF3FFFFFFFEFC00000101CC
S113023000900440FFF8FFFE0050064000400640D6
S113024000F0FF1F40F0FF1F7407000052F0FF1F73
S1130250000000000000000000000000000000009A
S1130260000000000000000000000000000000008A
S1130270000000000000000000000000000000007A
S1130280000000000000000000000000000000006A
S1130290000000000000000000000000000000005A
S11302A0000000000000000000000000000000004A
S11302B0000000000000000000000000000000003A
S11302C0000000000000000000000000000000002A
S11302D0000000000000000000000000000000001A
S11302E0000000000000000000000000000000000A
S11302F000000000000000000000000000000000FA
S113030000000000000000000000000000000000E9
S113031000000000000000000000000000000000D9
S113032000000000000000000000000000000000C9
S113033000000000000000000000000000000000B9
S113034000000000000000000000000000000000A9
S11303500000000000000000000000000000000099
S11303600000000000000000000000000000000089
S11303700000000000000000000000000000000079
S11303800000000000000000000000000000000069
S11303900000000000000000000000000000000059
S11303A00000000000000000000000000000000049
S11303B00000000000000000000000000000000039
S11303C00000000000000000000000000000000029
S11303D00000000000000000000000000000000019
S11303E00000000000000000000000000000000009
S11303F000000000000000000000000000000000F9
S1130400FFFFFFFFFFFFFFFFFFFFFFFF7EF7FFFF81
S1130410F0B5DE4657464E464546E0B589B072B65D
S1130420954B964A0E215A6007221A608822944BF3
S1130430520199508021C024924AC9009858924D83
S1130440A40008439850AC649858904F08439850BF
S11304508020EC649D5840012843022598508C4824
S1130460AA4641608B4841692943416180208A49F9
S1130470C0045E58304358508848804600204646A1
S11304803060B7605E58B4468026654676042E43D5
S1130490834D5E50A94628602426AF604546EE6031
S11304A06E614D466E6145462861A8614D46A8615E
S11304B028681C3E30432860404645460068304367
S11304C0286080209E58800030439850754A7648B2
S11304D0764E106576484025426932404261504666
S11304E05A5802435A5004315A58FE3002435A5063
S11304F08623704A70495B00D1507049704B11508B
S113050004301350043015506E4A573810706E4A38
S1130510B03810806D4ABF3511606D490A59AA433D
S11305207F3D2A430A51C02252008850086062B6B7
S11305300020684A68499446684A694E0692694AA6
S1130540079230BF0A780870002AFAD06446FA2568
S11305501A68247801921A686D0102921A6803924B
S11305601A6892461A681F6804921A6805921A68F3
S113057093463288013292B23280AA426AD9012269
S11305803280072C73D8069AA40012599746FA248D
S11305906401A24201D1624610705A46120392B21B
S11305A0444622614A46A06190615525344C4E4A26
S11305B0A5505535A550C4E732884C4CA24202D907
S11305C0624607241470059A150942462D03ADB2FC
S11305D0156190614A469061E7E73288444CA24233
S11305E002D962460624147042463F0A3F03BFB252
S11305F0176190614A469061D7E73E4A3488944235
S113060002D9052264462270F022049C120214408E
S11306102200C5E7FA2234881201944202D304224C
S1130620644622705246120CB8E7334A3488944226
S113063002D9032264462270039A120DAEE7FA220D
S11306403488D200944202D3022264462270029A71
S1130650120EA3E7072C03D8079DA4002C59A74624
S1130660FA24A400A24202D3012264462270019A11
S1130670120F120394E7C04610E000E080BB0000B4
S1130680007004403810000000A00440FFFF000088
S113069000C00440C0F00F403C10000000A0034024
S11306A0008003400090044003010101FFFFEFFFBD
S11306B000F00F4000800040000040E000F0FF1F09
S11306C04CF0FF1F001002404AF0FF1F44F0FF1FD0
S11306D000E100E050F0FF1F51F0FF1F340700005D
S11306E040F0FF1F5407000004110000571B0000D6
S11306F06F17000087130000B70B00000122014BA5
S11307001A70704751F0FF1F074B08491A6880237D
S11307105B00CA50064B1A88802352005B041343C3
S1130720842252008B50704744F0FF1F0080004029
S11307304AF0FF1F6E0600003E0600002A06000075
S113074014060000FA050000DA050000B8050000F0
S11307509A050000600600003E0600002A0600001C
S113076014060000FA050000DA050000B8050000D0
S10707708E050000EE
S11307745703CF8A0F0F0F0FFF3FFF7F0000FFFFC8
S1130784BBAA665585FB214307030F0A2222777708
S113079400F00F0000FF00FF34127856BC9AF0DE1C
S11307A48293EBFA0F62900602010403060508071C
S9030131CA
